{
  "contractName": "PatientData",
  "abi": [
    {
      "inputs": [],
      "payable": false,
      "stateMutability": "nonpayable",
      "type": "constructor"
    },
    {
      "constant": true,
      "inputs": [],
      "name": "countMedicalReports",
      "outputs": [
        {
          "internalType": "uint256",
          "name": "",
          "type": "uint256"
        }
      ],
      "payable": false,
      "stateMutability": "view",
      "type": "function"
    },
    {
      "constant": true,
      "inputs": [
        {
          "internalType": "uint256",
          "name": "",
          "type": "uint256"
        }
      ],
      "name": "medicalReports",
      "outputs": [
        {
          "internalType": "address",
          "name": "senderId",
          "type": "address"
        },
        {
          "internalType": "string",
          "name": "medReportId",
          "type": "string"
        },
        {
          "internalType": "uint256",
          "name": "weight",
          "type": "uint256"
        },
        {
          "internalType": "uint256",
          "name": "height",
          "type": "uint256"
        },
        {
          "internalType": "string",
          "name": "bloodGroup",
          "type": "string"
        },
        {
          "internalType": "string",
          "name": "diseaseName",
          "type": "string"
        },
        {
          "internalType": "string",
          "name": "diseaseDescription",
          "type": "string"
        },
        {
          "internalType": "string",
          "name": "diseaseStartedOn",
          "type": "string"
        }
      ],
      "payable": false,
      "stateMutability": "view",
      "type": "function"
    },
    {
      "constant": true,
      "inputs": [
        {
          "internalType": "address",
          "name": "",
          "type": "address"
        }
      ],
      "name": "senders",
      "outputs": [
        {
          "internalType": "string",
          "name": "name",
          "type": "string"
        },
        {
          "internalType": "string",
          "name": "institutionName",
          "type": "string"
        },
        {
          "internalType": "string",
          "name": "institutionCode",
          "type": "string"
        },
        {
          "internalType": "uint256",
          "name": "patientCount",
          "type": "uint256"
        }
      ],
      "payable": false,
      "stateMutability": "view",
      "type": "function"
    },
    {
      "constant": false,
      "inputs": [
        {
          "internalType": "string",
          "name": "patientId",
          "type": "string"
        },
        {
          "internalType": "string",
          "name": "patientName",
          "type": "string"
        },
        {
          "internalType": "string",
          "name": "birthDate",
          "type": "string"
        },
        {
          "internalType": "string",
          "name": "phoneNumber",
          "type": "string"
        },
        {
          "internalType": "string",
          "name": "_address",
          "type": "string"
        },
        {
          "internalType": "string",
          "name": "medReportId",
          "type": "string"
        },
        {
          "internalType": "uint256",
          "name": "weight",
          "type": "uint256"
        },
        {
          "internalType": "uint256",
          "name": "height",
          "type": "uint256"
        },
        {
          "internalType": "string",
          "name": "bloodGroup",
          "type": "string"
        },
        {
          "internalType": "string",
          "name": "diseaseName",
          "type": "string"
        },
        {
          "internalType": "string",
          "name": "diseaseDescription",
          "type": "string"
        },
        {
          "internalType": "string",
          "name": "diseaseStartedOn",
          "type": "string"
        }
      ],
      "name": "addMedicalReport",
      "outputs": [],
      "payable": false,
      "stateMutability": "nonpayable",
      "type": "function"
    },
    {
      "constant": true,
      "inputs": [
        {
          "internalType": "uint256",
          "name": "index",
          "type": "uint256"
        }
      ],
      "name": "getPatientsList",
      "outputs": [
        {
          "internalType": "string",
          "name": "",
          "type": "string"
        },
        {
          "internalType": "string",
          "name": "",
          "type": "string"
        },
        {
          "internalType": "string",
          "name": "",
          "type": "string"
        },
        {
          "internalType": "string",
          "name": "",
          "type": "string"
        },
        {
          "internalType": "uint256",
          "name": "",
          "type": "uint256"
        }
      ],
      "payable": false,
      "stateMutability": "view",
      "type": "function"
    }
  ],
  "bytecode": "0x60806040526000805534801561001457600080fd5b50611857806100246000396000f3fe608060405234801561001057600080fd5b50600436106100565760003560e01c806260d3991461005b578063360d0f29146105bb578063982fb9d8146105d5578063a2df7d0b14610746578063beedbba91461099a575b600080fd5b6105b9600480360361018081101561007257600080fd5b810190602081018135600160201b81111561008c57600080fd5b82018360208201111561009e57600080fd5b803590602001918460018302840111600160201b831117156100bf57600080fd5b91908080601f0160208091040260200160405190810160405280939291908181526020018383808284376000920191909152509295949360208101935035915050600160201b81111561011157600080fd5b82018360208201111561012357600080fd5b803590602001918460018302840111600160201b8311171561014457600080fd5b91908080601f0160208091040260200160405190810160405280939291908181526020018383808284376000920191909152509295949360208101935035915050600160201b81111561019657600080fd5b8201836020820111156101a857600080fd5b803590602001918460018302840111600160201b831117156101c957600080fd5b91908080601f0160208091040260200160405190810160405280939291908181526020018383808284376000920191909152509295949360208101935035915050600160201b81111561021b57600080fd5b82018360208201111561022d57600080fd5b803590602001918460018302840111600160201b8311171561024e57600080fd5b91908080601f0160208091040260200160405190810160405280939291908181526020018383808284376000920191909152509295949360208101935035915050600160201b8111156102a057600080fd5b8201836020820111156102b257600080fd5b803590602001918460018302840111600160201b831117156102d357600080fd5b91908080601f0160208091040260200160405190810160405280939291908181526020018383808284376000920191909152509295949360208101935035915050600160201b81111561032557600080fd5b82018360208201111561033757600080fd5b803590602001918460018302840111600160201b8311171561035857600080fd5b91908080601f0160208091040260200160405190810160405280939291908181526020018383808284376000920191909152509295843595602086013595919450925060608101915060400135600160201b8111156103b657600080fd5b8201836020820111156103c857600080fd5b803590602001918460018302840111600160201b831117156103e957600080fd5b91908080601f0160208091040260200160405190810160405280939291908181526020018383808284376000920191909152509295949360208101935035915050600160201b81111561043b57600080fd5b82018360208201111561044d57600080fd5b803590602001918460018302840111600160201b8311171561046e57600080fd5b91908080601f0160208091040260200160405190810160405280939291908181526020018383808284376000920191909152509295949360208101935035915050600160201b8111156104c057600080fd5b8201836020820111156104d257600080fd5b803590602001918460018302840111600160201b831117156104f357600080fd5b91908080601f0160208091040260200160405190810160405280939291908181526020018383808284376000920191909152509295949360208101935035915050600160201b81111561054557600080fd5b82018360208201111561055757600080fd5b803590602001918460018302840111600160201b8311171561057857600080fd5b91908080601f016020809104026020016040519081016040528093929190818152602001838380828437600092019190915250929550610b68945050505050565b005b6105c3610ed8565b60408051918252519081900360200190f35b6105fb600480360360208110156105eb57600080fd5b50356001600160a01b0316610ede565b60405180806020018060200180602001858152602001848103845288818151815260200191508051906020019080838360005b8381101561064657818101518382015260200161062e565b50505050905090810190601f1680156106735780820380516001836020036101000a031916815260200191505b50848103835287518152875160209182019189019080838360005b838110156106a657818101518382015260200161068e565b50505050905090810190601f1680156106d35780820380516001836020036101000a031916815260200191505b50848103825286518152865160209182019188019080838360005b838110156107065781810151838201526020016106ee565b50505050905090810190601f1680156107335780820380516001836020036101000a031916815260200191505b5097505050505050505060405180910390f35b6107636004803603602081101561075c57600080fd5b50356110b0565b60405180896001600160a01b03166001600160a01b03168152602001806020018881526020018781526020018060200180602001806020018060200186810386528d818151815260200191508051906020019080838360005b838110156107d45781810151838201526020016107bc565b50505050905090810190601f1680156108015780820380516001836020036101000a031916815260200191505b5086810385528a5181528a516020918201918c019080838360005b8381101561083457818101518382015260200161081c565b50505050905090810190601f1680156108615780820380516001836020036101000a031916815260200191505b5086810384528951815289516020918201918b019080838360005b8381101561089457818101518382015260200161087c565b50505050905090810190601f1680156108c15780820380516001836020036101000a031916815260200191505b5086810383528851815288516020918201918a019080838360005b838110156108f45781810151838201526020016108dc565b50505050905090810190601f1680156109215780820380516001836020036101000a031916815260200191505b50868103825287518152875160209182019189019080838360005b8381101561095457818101518382015260200161093c565b50505050905090810190601f1680156109815780820380516001836020036101000a031916815260200191505b509d505050505050505050505050505060405180910390f35b6109b7600480360360208110156109b057600080fd5b50356113bb565b604051808060200180602001806020018060200186815260200185810385528a818151815260200191508051906020019080838360005b83811015610a065781810151838201526020016109ee565b50505050905090810190601f168015610a335780820380516001836020036101000a031916815260200191505b5085810384528951815289516020918201918b019080838360005b83811015610a66578181015183820152602001610a4e565b50505050905090810190601f168015610a935780820380516001836020036101000a031916815260200191505b5085810383528851815288516020918201918a019080838360005b83811015610ac6578181015183820152602001610aae565b50505050905090810190601f168015610af35780820380516001836020036101000a031916815260200191505b50858103825287518152875160209182019189019080838360005b83811015610b26578181015183820152602001610b0e565b50505050905090810190601f168015610b535780820380516001836020036101000a031916815260200191505b50995050505050505050505060405180910390f35b6060610b7483896116d4565b9050600060016000336001600160a01b03166001600160a01b0316815260200190815260200160002090506000816005018f6040518082805190602001908083835b60208310610bd55780518252601f199092019160209182019101610bb6565b6001836020036101000a038019825116818451168082178552505050505050905001915050908152602001604051809103902090508060000180546001816001161561010002031660029004905060001415610d52578e8260040160008460030160008154809291906001019190505581526020019081526020016000209080519060200190610c66929190611787565b50816005018f6040518082805190602001908083835b60208310610c9b5780518252601f199092019160209182019101610c7c565b51815160209384036101000a600019018019909216911617905292019485525060408051948590038201852091850190819052600094859052909450610ce693859350909150611787565b50604080516020810191829052600090819052610d07916001840191611787565b50604080516020810191829052600090819052610d28916002840191611787565b50604080516020810191829052600090819052610d49916003840191611787565b50600060048201555b8d816000019080519060200190610d6a929190611787565b508c816001019080519060200190610d83929190611787565b508b51610d9990600283019060208f0190611787565b508a51610daf90600383019060208e0190611787565b506000805460048301819055604080516101008101825233815260208082018f81528284018f9052606083018e9052608083018d905260a083018c905260c0830189905260e083018a9052600180860187559486526002825292909420815181546001600160a01b0319166001600160a01b039091161781559151805191949293610e409390850192910190611787565b50604082015160028201556060820151600382015560808201518051610e70916004840191602090910190611787565b5060a08201518051610e8c916005840191602090910190611787565b5060c08201518051610ea8916006840191602090910190611787565b5060e08201518051610ec4916007840191602090910190611787565b505050505050505050505050505050505050565b60005481565b60016020818152600092835260409283902080548451600294821615610100026000190190911693909304601f8101839004830284018301909452838352928391830182828015610f705780601f10610f4557610100808354040283529160200191610f70565b820191906000526020600020905b815481529060010190602001808311610f5357829003601f168201915b505050505090806001018054600181600116156101000203166002900480601f01602080910402602001604051908101604052809291908181526020018280546001816001161561010002031660029004801561100e5780601f10610fe35761010080835404028352916020019161100e565b820191906000526020600020905b815481529060010190602001808311610ff157829003601f168201915b50505060028085018054604080516020601f60001961010060018716150201909416959095049283018590048502810185019091528181529596959450909250908301828280156110a05780601f10611075576101008083540402835291602001916110a0565b820191906000526020600020905b81548152906001019060200180831161108357829003601f168201915b5050505050908060030154905084565b6002602081815260009283526040928390208054600180830180548751601f600019948316156101000294909401909116969096049182018590048502860185019096528085526001600160a01b03909116949193928301828280156111575780601f1061112c57610100808354040283529160200191611157565b820191906000526020600020905b81548152906001019060200180831161113a57829003601f168201915b505050505090806002015490806003015490806004018054600181600116156101000203166002900480601f0160208091040260200160405190810160405280929190818152602001828054600181600116156101000203166002900480156112015780601f106111d657610100808354040283529160200191611201565b820191906000526020600020905b8154815290600101906020018083116111e457829003601f168201915b5050505060058301805460408051602060026001851615610100026000190190941693909304601f81018490048402820184019092528181529495949350908301828280156112915780601f1061126657610100808354040283529160200191611291565b820191906000526020600020905b81548152906001019060200180831161127457829003601f168201915b5050505060068301805460408051602060026001851615610100026000190190941693909304601f81018490048402820184019092528181529495949350908301828280156113215780601f106112f657610100808354040283529160200191611321565b820191906000526020600020905b81548152906001019060200180831161130457829003601f168201915b5050505060078301805460408051602060026001851615610100026000190190941693909304601f81018490048402820184019092528181529495949350908301828280156113b15780601f10611386576101008083540402835291602001916113b1565b820191906000526020600020905b81548152906001019060200180831161139457829003601f168201915b5050505050905088565b60608060608060008060016000336001600160a01b03166001600160a01b0316815260200190815260200160002090506000816005018260040160008a815260200190815260200160002060405180828054600181600116156101000203166002900480156114615780601f1061143f576101008083540402835291820191611461565b820191906000526020600020905b81548152906001019060200180831161144d575b5050928352505060408051602092819003830181206004810154815460026001808316156101000260001901909216819004601f8101889004880286018801909652858552929650869590860194928601936003870193909187919083018282801561150e5780601f106114e35761010080835404028352916020019161150e565b820191906000526020600020905b8154815290600101906020018083116114f157829003601f168201915b5050875460408051602060026001851615610100026000190190941693909304601f8101849004840282018401909252818152959a508994509250840190508282801561159c5780601f106115715761010080835404028352916020019161159c565b820191906000526020600020905b81548152906001019060200180831161157f57829003601f168201915b5050865460408051602060026001851615610100026000190190941693909304601f81018490048402820184019092528181529599508894509250840190508282801561162a5780601f106115ff5761010080835404028352916020019161162a565b820191906000526020600020905b81548152906001019060200180831161160d57829003601f168201915b5050855460408051602060026001851615610100026000190190941693909304601f8101849004840282018401909252818152959850879450925084019050828280156116b85780601f1061168d576101008083540402835291602001916116b8565b820191906000526020600020905b81548152906001019060200180831161169b57829003601f168201915b5050505050915096509650965096509650505091939590929450565b815160408051828152601f19601f840116810160200190915260609184918491849190801561170a576020820181803883390190505b50905060005b835181101561177d57828351828161172457fe5b068151811061172f57fe5b602001015160f81c60f81b84828151811061174657fe5b602001015160f81c60f81b1882828151811061175e57fe5b60200101906001600160f81b031916908160001a905350600101611710565b5095945050505050565b828054600181600116156101000203166002900490600052602060002090601f016020900481019282601f106117c857805160ff19168380011785556117f5565b828001600101855582156117f5579182015b828111156117f55782518255916020019190600101906117da565b50611801929150611805565b5090565b61181f91905b80821115611801576000815560010161180b565b9056fea265627a7a723158203288586a31caf0d55904010f8788b6005db377d0463e04a3d2a5a2eb3dc7fa8264736f6c63430005100032",
  "source": "pragma solidity 0.5.16;\n\ncontract PatientData {\n    uint256 public countMedicalReports = 0;\n\n    mapping(address => Sender) public senders;\n    mapping(uint => PatientMedicalReportStruct) public medicalReports;\n\n    struct PatientBioStruct {\n        string name;\n        string birthDate;\n        string phoneNumber;\n        string _address;\n        uint medicalReportNo;\n    }\n\n    struct PatientMedicalReportStruct {\n        address senderId;\n        string medReportId;\n        uint weight;\n        uint height;\n        string bloodGroup;\n        string diseaseName;\n        string diseaseDescription;\n        string diseaseStartedOn;\n    }\n\n    struct Sender {\n        string name;\n        string institutionName;\n        string institutionCode;\n        uint patientCount;\n        mapping(uint => string) patientsArray;\n        mapping(string => PatientBioStruct) patients;\n    }\n\n    constructor() public {\n    }\n\n    // Add encryption function\n    function encrypt(string memory _data, string memory _key) internal pure returns (string memory) {\n        bytes memory dataBytes = bytes(_data);\n        bytes memory keyBytes = bytes(_key);\n        bytes memory encryptedBytes = new bytes(dataBytes.length);\n\n        for (uint i = 0; i < dataBytes.length; i++) {\n            encryptedBytes[i] = dataBytes[i] ^ keyBytes[i % keyBytes.length];\n        }\n\n        return string(encryptedBytes);\n    }\n\n    // Add decryption function\n    function decrypt(string memory _encryptedData, string memory _key) internal pure returns (string memory) {\n        bytes memory encryptedBytes = bytes(_encryptedData);\n        bytes memory keyBytes = bytes(_key);\n        bytes memory decryptedBytes = new bytes(encryptedBytes.length);\n\n        for (uint i = 0; i < encryptedBytes.length; i++) {\n            decryptedBytes[i] = encryptedBytes[i] ^ keyBytes[i % keyBytes.length];\n        }\n\n        return string(decryptedBytes);\n    }\n\n    function addMedicalReport(\n    string memory patientId,\n    string memory patientName, \n    string memory birthDate, \n    string memory phoneNumber, \n    string memory _address,\n    string memory medReportId,\n    uint weight,\n    uint height,\n    string memory bloodGroup,\n    string memory diseaseName,\n    string memory diseaseDescription,\n    string memory diseaseStartedOn\n) public {\n    // Encrypt sensitive data\n    string memory encryptedDiseaseDescription = encrypt(diseaseDescription, medReportId);\n\n    Sender storage sender = senders[msg.sender];\n    PatientBioStruct storage patient = sender.patients[patientId];\n\n    if (bytes(patient.name).length == 0) {\n        sender.patientsArray[sender.patientCount++] = patientId;\n        patient = sender.patients[patientId]; // Get storage pointer to patient\n\n        // Initialize the patient struct\n        patient.name = \"\";\n        patient.birthDate = \"\";\n        patient.phoneNumber = \"\";\n        patient._address = \"\";\n        patient.medicalReportNo = 0;\n    }\n\n    // Update patient details\n    patient.name = patientName;\n    patient.birthDate = birthDate;\n    patient.phoneNumber = phoneNumber;\n    patient._address = _address;\n    patient.medicalReportNo = countMedicalReports;\n\n    // Store medical report\n    medicalReports[countMedicalReports++] = PatientMedicalReportStruct(\n        msg.sender,\n        medReportId,\n        weight,\n        height,\n        bloodGroup,\n        diseaseName,\n        encryptedDiseaseDescription, // Store encrypted disease description\n        diseaseStartedOn\n    );\n}\n\n\n\n    // Function to retrieve patient list\n    function getPatientsList(uint index) public view returns (\n        string memory,\n        string memory, \n        string memory, \n        string memory, \n        uint\n    ) {\n        Sender storage sender = senders[msg.sender];\n        PatientBioStruct storage patient = sender.patients[sender.patientsArray[index]];\n\n        return (\n            patient.name,\n            patient.birthDate,\n            patient.phoneNumber,\n            patient._address,\n            patient.medicalReportNo\n        );\n    }\n}\n",
  "sourcePath": "C:\\Users\\keert\\OneDrive\\Desktop\\coding\\sem 6\\Blockchain\\blockchain-master\\contracts\\SaveData.sol",
  "compiler": {
    "name": "solc",
    "version": "0.5.16+commit.9c3226ce.Emscripten.clang"
  },
  "schemaVersion": "3.4.16",
  "updatedAt": "2024-04-25T04:19:16.220Z",
  "devdoc": {
    "methods": {}
  },
  "userdoc": {
    "methods": {}
  }
}